{
  "address": "0xE1a7b6A6B5D68808e76FE52d23c58d19d6B76386",
  "abi": [
    {
      "inputs": [
        {
          "internalType": "address",
          "name": "_owner",
          "type": "address"
        }
      ],
      "stateMutability": "nonpayable",
      "type": "constructor"
    },
    {
      "anonymous": false,
      "inputs": [
        {
          "indexed": true,
          "internalType": "address",
          "name": "greetingSetter",
          "type": "address"
        },
        {
          "indexed": false,
          "internalType": "string",
          "name": "newGreeting",
          "type": "string"
        },
        {
          "indexed": false,
          "internalType": "bool",
          "name": "premium",
          "type": "bool"
        },
        {
          "indexed": false,
          "internalType": "uint256",
          "name": "value",
          "type": "uint256"
        }
      ],
      "name": "GreetingChange",
      "type": "event"
    },
    {
      "anonymous": false,
      "inputs": [
        {
          "indexed": true,
          "internalType": "address",
          "name": "signer",
          "type": "address"
        },
        {
          "indexed": false,
          "internalType": "uint256",
          "name": "totalBricks",
          "type": "uint256"
        }
      ],
      "name": "GuestbookSigned",
      "type": "event"
    },
    {
      "inputs": [
        {
          "internalType": "uint256",
          "name": "",
          "type": "uint256"
        }
      ],
      "name": "builders",
      "outputs": [
        {
          "internalType": "address",
          "name": "",
          "type": "address"
        }
      ],
      "stateMutability": "view",
      "type": "function"
    },
    {
      "inputs": [],
      "name": "getAllBuilders",
      "outputs": [
        {
          "internalType": "address[]",
          "name": "",
          "type": "address[]"
        }
      ],
      "stateMutability": "view",
      "type": "function"
    },
    {
      "inputs": [],
      "name": "getTotalBuilders",
      "outputs": [
        {
          "internalType": "uint256",
          "name": "",
          "type": "uint256"
        }
      ],
      "stateMutability": "view",
      "type": "function"
    },
    {
      "inputs": [],
      "name": "greeting",
      "outputs": [
        {
          "internalType": "string",
          "name": "",
          "type": "string"
        }
      ],
      "stateMutability": "view",
      "type": "function"
    },
    {
      "inputs": [
        {
          "internalType": "address",
          "name": "_address",
          "type": "address"
        }
      ],
      "name": "hasAddressSigned",
      "outputs": [
        {
          "internalType": "bool",
          "name": "",
          "type": "bool"
        }
      ],
      "stateMutability": "view",
      "type": "function"
    },
    {
      "inputs": [
        {
          "internalType": "address",
          "name": "",
          "type": "address"
        }
      ],
      "name": "hasSigned",
      "outputs": [
        {
          "internalType": "bool",
          "name": "",
          "type": "bool"
        }
      ],
      "stateMutability": "view",
      "type": "function"
    },
    {
      "inputs": [],
      "name": "owner",
      "outputs": [
        {
          "internalType": "address",
          "name": "",
          "type": "address"
        }
      ],
      "stateMutability": "view",
      "type": "function"
    },
    {
      "inputs": [],
      "name": "premium",
      "outputs": [
        {
          "internalType": "bool",
          "name": "",
          "type": "bool"
        }
      ],
      "stateMutability": "view",
      "type": "function"
    },
    {
      "inputs": [
        {
          "internalType": "string",
          "name": "_newGreeting",
          "type": "string"
        }
      ],
      "name": "setGreeting",
      "outputs": [],
      "stateMutability": "payable",
      "type": "function"
    },
    {
      "inputs": [],
      "name": "signGuestbook",
      "outputs": [],
      "stateMutability": "nonpayable",
      "type": "function"
    },
    {
      "inputs": [],
      "name": "totalBricks",
      "outputs": [
        {
          "internalType": "uint256",
          "name": "",
          "type": "uint256"
        }
      ],
      "stateMutability": "view",
      "type": "function"
    },
    {
      "inputs": [],
      "name": "totalCounter",
      "outputs": [
        {
          "internalType": "uint256",
          "name": "",
          "type": "uint256"
        }
      ],
      "stateMutability": "view",
      "type": "function"
    },
    {
      "inputs": [
        {
          "internalType": "address",
          "name": "",
          "type": "address"
        }
      ],
      "name": "userGreetingCounter",
      "outputs": [
        {
          "internalType": "uint256",
          "name": "",
          "type": "uint256"
        }
      ],
      "stateMutability": "view",
      "type": "function"
    },
    {
      "inputs": [],
      "name": "withdraw",
      "outputs": [],
      "stateMutability": "nonpayable",
      "type": "function"
    },
    {
      "stateMutability": "payable",
      "type": "receive"
    }
  ],
  "transactionHash": "0x2ba3724a99e4848b9a6552dbf94343ed86b214c3b425881c76e667a6e4bc1279",
  "args": [
    "0xEd23d89D3B04f402F058d519564255dA144cC31A"
  ],
  "numDeployments": 1,
  "solcInputHash": "5cc1f35b11c87bd00266ac00d1fdad34",
  "bytecode": "0x60e0604052601c60a09081527f4275696c64696e6720556e73746f707061626c6520417070732121210000000060c0526000906200003e90826200013a565b506001805460ff19169055600060028190556006553480156200006057600080fd5b5060405162000e9438038062000e94833981016040819052620000839162000206565b6001600160a01b031660805262000238565b634e487b7160e01b600052604160045260246000fd5b600181811c90821680620000c057607f821691505b602082108103620000e157634e487b7160e01b600052602260045260246000fd5b50919050565b601f8211156200013557600081815260208120601f850160051c81016020861015620001105750805b601f850160051c820191505b8181101562000131578281556001016200011c565b5050505b505050565b81516001600160401b0381111562000156576200015662000095565b6200016e81620001678454620000ab565b84620000e7565b602080601f831160018114620001a657600084156200018d5750858301515b600019600386901b1c1916600185901b17855562000131565b600085815260208120601f198616915b82811015620001d757888601518255948401946001909101908401620001b6565b5085821015620001f65787850151600019600388901b60f8161c191681555b5050505050600190811b01905550565b6000602082840312156200021957600080fd5b81516001600160a01b03811681146200023157600080fd5b9392505050565b608051610c3262000262600039600081816101f60152818161035d01526103c30152610c326000f3fe6080604052600436106100e15760003560e01c806397feba9d1161007f578063cea49c3c11610059578063cea49c3c14610271578063e0a73a931461029e578063e1d407df146102b8578063ef690cc0146102ce57600080fd5b806397feba9d14610218578063a41368621461022e578063bf6a14131461024157600080fd5b806345e8b5fd116100bb57806345e8b5fd1461014e5780634a8cc5b71461016357806362e198df1461019b5780638da5cb5b146101e457600080fd5b806323c49fcd146100ed57806339428c53146101185780633ccfd60b1461013757600080fd5b366100e857005b600080fd5b3480156100f957600080fd5b506101026102f0565b60405161010f91906107fd565b60405180910390f35b34801561012457600080fd5b506004545b60405190815260200161010f565b34801561014357600080fd5b5061014c610352565b005b34801561015a57600080fd5b5061014c61047c565b34801561016f57600080fd5b5061018361017e36600461084a565b6105c0565b6040516001600160a01b03909116815260200161010f565b3480156101a757600080fd5b506101d46101b6366004610863565b6001600160a01b031660009081526005602052604090205460ff1690565b604051901515815260200161010f565b3480156101f057600080fd5b506101837f000000000000000000000000000000000000000000000000000000000000000081565b34801561022457600080fd5b5061012960025481565b61014c61023c3660046108a9565b6105ea565b34801561024d57600080fd5b506101d461025c366004610863565b60056020526000908152604090205460ff1681565b34801561027d57600080fd5b5061012961028c366004610863565b60036020526000908152604090205481565b3480156102aa57600080fd5b506001546101d49060ff1681565b3480156102c457600080fd5b5061012960065481565b3480156102da57600080fd5b506102e36106bb565b60405161010f91906109a0565b6060600480548060200260200160405190810160405280929190818152602001828054801561034857602002820191906000526020600020905b81546001600160a01b0316815260019091019060200180831161032a575b5050505050905090565b336001600160a01b037f000000000000000000000000000000000000000000000000000000000000000016146103bf5760405162461bcd60e51b815260206004820152600d60248201526c2737ba103a34329027bbb732b960991b60448201526064015b60405180910390fd5b60007f00000000000000000000000000000000000000000000000000000000000000006001600160a01b03164760405160006040518083038185875af1925050503d806000811461042c576040519150601f19603f3d011682016040523d82523d6000602084013e610431565b606091505b50509050806104795760405162461bcd60e51b81526020600482015260146024820152732330b4b632b2103a379039b2b7321022ba3432b960611b60448201526064016103b6565b50565b3360009081526005602052604090205460ff16156104eb5760405162461bcd60e51b815260206004820152602660248201527f596f75206861766520616c7265616479207369676e656420746865206775657360448201526574626f6f6b2160d01b60648201526084016103b6565b336000818152600560205260408120805460ff191660019081179091556004805480830182559083527f8a35acfbc15ff81a39ae7d344fd709f28e8600b4aa8c65c6b64bfe7fe36bd19b0180546001600160a01b0319169093179092556006805490919061055a9084906109b3565b92505081905550610586604051806060016040528060288152602001610bb46028913933600654610749565b60065460405190815233907ff49cdf8c060410830368cd659a71df5df48f6f7130686bfd0c2221503fd44d7a9060200160405180910390a2565b600481815481106105d057600080fd5b6000918252602090912001546001600160a01b0316905081565b61060d604051806060016040528060218152602001610bdc602191398233610795565b60006106198282610a62565b5060016002600082825461062d91906109b3565b90915550503360009081526003602052604081208054600192906106529084906109b3565b9091555050341561066e576001805460ff191681179055610679565b6001805460ff191690555b60405133907f94cbd7e04dca26a7667654f6448b2ca0a40fec602118dc5fd8c82b9cf3c645ad906106b09084903480151591610b22565b60405180910390a250565b600080546106c8906109da565b80601f01602080910402602001604051908101604052809291908181526020018280546106f4906109da565b80156107415780601f1061071657610100808354040283529160200191610741565b820191906000526020600020905b81548152906001019060200180831161072457829003601f168201915b505050505081565b61079083838360405160240161076193929190610b47565b60408051601f198184030181529190526020810180516001600160e01b0316630d26b92560e01b1790526107d8565b505050565b6107908383836040516024016107ad93929190610b75565b60408051601f198184030181529190526020810180516001600160e01b03166395ed019560e01b1790525b6104798160006a636f6e736f6c652e6c6f679050600080835160208501845afa505050565b6020808252825182820181905260009190848201906040850190845b8181101561083e5783516001600160a01b031683529284019291840191600101610819565b50909695505050505050565b60006020828403121561085c57600080fd5b5035919050565b60006020828403121561087557600080fd5b81356001600160a01b038116811461088c57600080fd5b9392505050565b634e487b7160e01b600052604160045260246000fd5b6000602082840312156108bb57600080fd5b813567ffffffffffffffff808211156108d357600080fd5b818401915084601f8301126108e757600080fd5b8135818111156108f9576108f9610893565b604051601f8201601f19908116603f0116810190838211818310171561092157610921610893565b8160405282815287602084870101111561093a57600080fd5b826020860160208301376000928101602001929092525095945050505050565b6000815180845260005b8181101561098057602081850181015186830182015201610964565b506000602082860101526020601f19601f83011685010191505092915050565b60208152600061088c602083018461095a565b808201808211156109d457634e487b7160e01b600052601160045260246000fd5b92915050565b600181811c908216806109ee57607f821691505b602082108103610a0e57634e487b7160e01b600052602260045260246000fd5b50919050565b601f82111561079057600081815260208120601f850160051c81016020861015610a3b5750805b601f850160051c820191505b81811015610a5a57828155600101610a47565b505050505050565b815167ffffffffffffffff811115610a7c57610a7c610893565b610a9081610a8a84546109da565b84610a14565b602080601f831160018114610ac55760008415610aad5750858301515b600019600386901b1c1916600185901b178555610a5a565b600085815260208120601f198616915b82811015610af457888601518255948401946001909101908401610ad5565b5085821015610b125787850151600019600388901b60f8161c191681555b5050505050600190811b01905550565b606081526000610b35606083018661095a565b93151560208301525060400152919050565b606081526000610b5a606083018661095a565b6001600160a01b039490941660208301525060400152919050565b606081526000610b88606083018661095a565b8281036020840152610b9a818661095a565b91505060018060a01b038316604083015294935050505056fe4e6577206275696c646572207369676e65643a2025732c20546f74616c20627269636b733a20256453657474696e67206e6577206772656574696e6720272573272066726f6d202573a2646970667358221220fb088784916ef6d079ba31a416fb088811709db8dde549b8acf27395be9ae31e64736f6c63430008140033",
  "devdoc": {
    "author": "BuidlGuidl",
    "kind": "dev",
    "methods": {
      "setGreeting(string)": {
        "params": {
          "_newGreeting": "(string memory) - new greeting to save on the contract"
        }
      }
    },
    "version": 1
  },
  "userdoc": {
    "kind": "user",
    "methods": {
      "getAllBuilders()": {
        "notice": "Function to get all builders (addresses that have signed)"
      },
      "getTotalBuilders()": {
        "notice": "Function to get the total number of builders (unique signers)"
      },
      "hasAddressSigned(address)": {
        "notice": "Function to check if an address has signed the guestbook"
      },
      "setGreeting(string)": {
        "notice": "Function that allows anyone to change the state variable \"greeting\" of the contract and increase the counters"
      },
      "signGuestbook()": {
        "notice": "Function that allows users to sign the guestbook Each unique address adds a brick to the wall"
      },
      "withdraw()": {
        "notice": "Function that allows the owner to withdraw all the Ether in the contract The function can only be called by the owner of the contract as defined by the isOwner modifier"
      }
    },
    "notice": "A smart contract that allows users to sign a guestbook and build a wall brick by brick",
    "version": 1
  },
  "storageLayout": {
    "storage": [
      {
        "astId": 8,
        "contract": "contracts/YourContract.sol:YourContract",
        "label": "greeting",
        "offset": 0,
        "slot": "0",
        "type": "t_string_storage"
      },
      {
        "astId": 11,
        "contract": "contracts/YourContract.sol:YourContract",
        "label": "premium",
        "offset": 0,
        "slot": "1",
        "type": "t_bool"
      },
      {
        "astId": 14,
        "contract": "contracts/YourContract.sol:YourContract",
        "label": "totalCounter",
        "offset": 0,
        "slot": "2",
        "type": "t_uint256"
      },
      {
        "astId": 18,
        "contract": "contracts/YourContract.sol:YourContract",
        "label": "userGreetingCounter",
        "offset": 0,
        "slot": "3",
        "type": "t_mapping(t_address,t_uint256)"
      },
      {
        "astId": 21,
        "contract": "contracts/YourContract.sol:YourContract",
        "label": "builders",
        "offset": 0,
        "slot": "4",
        "type": "t_array(t_address)dyn_storage"
      },
      {
        "astId": 25,
        "contract": "contracts/YourContract.sol:YourContract",
        "label": "hasSigned",
        "offset": 0,
        "slot": "5",
        "type": "t_mapping(t_address,t_bool)"
      },
      {
        "astId": 28,
        "contract": "contracts/YourContract.sol:YourContract",
        "label": "totalBricks",
        "offset": 0,
        "slot": "6",
        "type": "t_uint256"
      }
    ],
    "types": {
      "t_address": {
        "encoding": "inplace",
        "label": "address",
        "numberOfBytes": "20"
      },
      "t_array(t_address)dyn_storage": {
        "base": "t_address",
        "encoding": "dynamic_array",
        "label": "address[]",
        "numberOfBytes": "32"
      },
      "t_bool": {
        "encoding": "inplace",
        "label": "bool",
        "numberOfBytes": "1"
      },
      "t_mapping(t_address,t_bool)": {
        "encoding": "mapping",
        "key": "t_address",
        "label": "mapping(address => bool)",
        "numberOfBytes": "32",
        "value": "t_bool"
      },
      "t_mapping(t_address,t_uint256)": {
        "encoding": "mapping",
        "key": "t_address",
        "label": "mapping(address => uint256)",
        "numberOfBytes": "32",
        "value": "t_uint256"
      },
      "t_string_storage": {
        "encoding": "bytes",
        "label": "string",
        "numberOfBytes": "32"
      },
      "t_uint256": {
        "encoding": "inplace",
        "label": "uint256",
        "numberOfBytes": "32"
      }
    }
  }
}